:03000000020800F3
:0C080000787FE4F6D8FD75810C020847F3
:0309A90001080042
:1008C300D293C2957F0A7E001208DAC291C292C205
:0708D30093C2957F0A7E002D
:1008DA00D3EF9400EE940040147D6E7C00ED1D7001
:0D08EA00011CED4C70F7EF1F70E61E80E35F
:0108F70022DE
:10097E00E4FDFCC3ED9FEC9E5008000DBD00010C84
:02098E0080F1F6
:010990002244
:0F099100759850758921758DFD758BFDD28E225D
:10094200E4F50BC291D2921208C3050BE50BC394D6
:040952000540F0224A
:10091400E4F50BD291C292C293D2951208C7050B8B
:08092400E50BC3940540EC2231
:10095600E4F50BC291C2921208C3050BE50BC394D2
:040966000540F02236
:10092C00E4F50BC291D292C2931208C5050BE50BEC
:06093C00C3940540EE2209
:0909A000C291C292C293C29522D9
:10088C00309805C298750801E50864017028D2AF4C
:10089C00D2A9D28CAF99EF146010146010146010B0
:1008AC001460102404700F02094202091402092C6E
:0708BC000209561209A022F7
:10096A001209A0759904120991758C4C758AD012D6
:04097A00088C80FB6A
:03000B000208F8F0
:1008F800C0E0C0D0758C4C758AD0050AE50AB414DE
:0C09080006750800750A00D0D0D0E0325F
:10080C0002096AE493A3F8E493A34003F68001F28F
:10081C0008DFF48029E493A3F85407240CC8C333ED
:10082C00C4540F4420C8834004F456800146F6DFBC
:10083C00E4800B01020408102040809009A9E47E9A
:10084C00019360BCA3FF543F30E509541FFEE493B1
:10085C00A360010ECF54C025E060A840B8E493A378
:10086C00FAE493A3F8E493A3C8C582C8CAC583CAA3
:10087C00F0A3C8C582C8CAC583CADFE9DEE780BE5B
:0109AC00004A
:00000001FF
